:100000000C9434000C943E000C943E000C943E0082
:100010000C943E000C943E000C943E000C943E0068
:100020000C943E000C943E000C943E000C943E0058
:100030000C943E000C943E000C943E000C943E0048
:100040000C943E000C943E000C943E000C943E0038
:100050000C943E000C943E000C943E000C943E0028
:100060000C943E000C943E0011241FBECFEFD8E04C
:10007000DEBFCDBF0E9440000C948F000C940000A6
:100080008FE39CE90197F1F700C00000219A81E01D
:100090008093800088E08093810080918000806858
:1000A000809380008091810081608093810081E055
:1000B00090E0909389008093880090938B008093C8
:1000C0008A00789480E890E090938900809388007B
:1000D00010928B0010928A0040E080E099B126B126
:1000E000582F892F90E095958795959587958F70D6
:1000F00090E1299F90011124822B91E0940F4A30C6
:1001000008F0942F40E05813E9CF933030F0282FB7
:1001100030E03093890020938800492FDFCFF89496
:02012000FFCF0F
:00000001FF
